{
  "_format": "hh-sol-artifact-1",
  "contractName": "ProductAuth",
  "sourceName": "contracts/ProductAuth.sol",
  "abi": [
    {
      "anonymous": false,
      "inputs": [
        {
          "indexed": true,
          "internalType": "string",
          "name": "productId",
          "type": "string"
        },
        {
          "indexed": false,
          "internalType": "string",
          "name": "internalCode",
          "type": "string"
        },
        {
          "indexed": false,
          "internalType": "string",
          "name": "productName",
          "type": "string"
        },
        {
          "indexed": true,
          "internalType": "address",
          "name": "registrant",
          "type": "address"
        },
        {
          "indexed": false,
          "internalType": "uint256",
          "name": "timestamp",
          "type": "uint256"
        }
      ],
      "name": "ProductRegistered",
      "type": "event"
    },
    {
      "anonymous": false,
      "inputs": [
        {
          "indexed": true,
          "internalType": "string",
          "name": "productId",
          "type": "string"
        },
        {
          "indexed": false,
          "internalType": "bool",
          "name": "isValid",
          "type": "bool"
        },
        {
          "indexed": true,
          "internalType": "address",
          "name": "verifier",
          "type": "address"
        },
        {
          "indexed": false,
          "internalType": "uint256",
          "name": "timestamp",
          "type": "uint256"
        }
      ],
      "name": "ProductVerified",
      "type": "event"
    },
    {
      "anonymous": false,
      "inputs": [
        {
          "indexed": true,
          "internalType": "string",
          "name": "productId",
          "type": "string"
        },
        {
          "indexed": false,
          "internalType": "string",
          "name": "action",
          "type": "string"
        },
        {
          "indexed": false,
          "internalType": "string",
          "name": "location",
          "type": "string"
        },
        {
          "indexed": false,
          "internalType": "uint256",
          "name": "timestamp",
          "type": "uint256"
        }
      ],
      "name": "TraceabilityAdded",
      "type": "event"
    },
    {
      "inputs": [
        {
          "internalType": "string",
          "name": "_productId",
          "type": "string"
        },
        {
          "internalType": "string",
          "name": "_action",
          "type": "string"
        },
        {
          "internalType": "string",
          "name": "_description",
          "type": "string"
        },
        {
          "internalType": "string",
          "name": "_location",
          "type": "string"
        },
        {
          "internalType": "string",
          "name": "_operator",
          "type": "string"
        },
        {
          "internalType": "string",
          "name": "_extraData",
          "type": "string"
        }
      ],
      "name": "addTraceabilityRecord",
      "outputs": [
        {
          "internalType": "bool",
          "name": "",
          "type": "bool"
        }
      ],
      "stateMutability": "nonpayable",
      "type": "function"
    },
    {
      "inputs": [
        {
          "internalType": "string[]",
          "name": "_productIds",
          "type": "string[]"
        },
        {
          "internalType": "string[]",
          "name": "_actions",
          "type": "string[]"
        },
        {
          "internalType": "string[]",
          "name": "_descriptions",
          "type": "string[]"
        },
        {
          "internalType": "string[]",
          "name": "_locations",
          "type": "string[]"
        },
        {
          "internalType": "string[]",
          "name": "_operators",
          "type": "string[]"
        }
      ],
      "name": "batchAddTraceability",
      "outputs": [
        {
          "internalType": "bool",
          "name": "",
          "type": "bool"
        }
      ],
      "stateMutability": "nonpayable",
      "type": "function"
    },
    {
      "inputs": [
        {
          "internalType": "uint256",
          "name": "",
          "type": "uint256"
        }
      ],
      "name": "batchProductCount",
      "outputs": [
        {
          "internalType": "uint256",
          "name": "",
          "type": "uint256"
        }
      ],
      "stateMutability": "view",
      "type": "function"
    },
    {
      "inputs": [
        {
          "internalType": "string[]",
          "name": "_productIds",
          "type": "string[]"
        },
        {
          "internalType": "string[]",
          "name": "_internalCodes",
          "type": "string[]"
        },
        {
          "internalType": "string[]",
          "name": "_productNames",
          "type": "string[]"
        },
        {
          "internalType": "string[]",
          "name": "_productModels",
          "type": "string[]"
        },
        {
          "internalType": "string[]",
          "name": "_categories",
          "type": "string[]"
        },
        {
          "internalType": "uint256",
          "name": "_batchId",
          "type": "uint256"
        }
      ],
      "name": "batchRegisterProducts",
      "outputs": [
        {
          "internalType": "bool",
          "name": "",
          "type": "bool"
        }
      ],
      "stateMutability": "nonpayable",
      "type": "function"
    },
    {
      "inputs": [
        {
          "internalType": "uint256",
          "name": "_batchId",
          "type": "uint256"
        }
      ],
      "name": "getBatchProductCount",
      "outputs": [
        {
          "internalType": "uint256",
          "name": "",
          "type": "uint256"
        }
      ],
      "stateMutability": "view",
      "type": "function"
    },
    {
      "inputs": [
        {
          "internalType": "string",
          "name": "_productId",
          "type": "string"
        }
      ],
      "name": "getProductInfo",
      "outputs": [
        {
          "components": [
            {
              "internalType": "string",
              "name": "productId",
              "type": "string"
            },
            {
              "internalType": "string",
              "name": "internalCode",
              "type": "string"
            },
            {
              "internalType": "string",
              "name": "productName",
              "type": "string"
            },
            {
              "internalType": "string",
              "name": "productModel",
              "type": "string"
            },
            {
              "internalType": "string",
              "name": "category",
              "type": "string"
            },
            {
              "internalType": "uint256",
              "name": "createdAt",
              "type": "uint256"
            },
            {
              "internalType": "uint256",
              "name": "batchId",
              "type": "uint256"
            },
            {
              "internalType": "bool",
              "name": "isRegistered",
              "type": "bool"
            },
            {
              "internalType": "address",
              "name": "registrant",
              "type": "address"
            }
          ],
          "internalType": "struct ProductAuth.Product",
          "name": "",
          "type": "tuple"
        }
      ],
      "stateMutability": "view",
      "type": "function"
    },
    {
      "inputs": [
        {
          "internalType": "string",
          "name": "_productId",
          "type": "string"
        }
      ],
      "name": "getTraceabilityCount",
      "outputs": [
        {
          "internalType": "uint256",
          "name": "",
          "type": "uint256"
        }
      ],
      "stateMutability": "view",
      "type": "function"
    },
    {
      "inputs": [
        {
          "internalType": "string",
          "name": "_productId",
          "type": "string"
        },
        {
          "internalType": "uint256",
          "name": "_startIndex",
          "type": "uint256"
        },
        {
          "internalType": "uint256",
          "name": "_limit",
          "type": "uint256"
        }
      ],
      "name": "getTraceabilityHistory",
      "outputs": [
        {
          "components": [
            {
              "internalType": "string",
              "name": "productId",
              "type": "string"
            },
            {
              "internalType": "string",
              "name": "action",
              "type": "string"
            },
            {
              "internalType": "string",
              "name": "description",
              "type": "string"
            },
            {
              "internalType": "string",
              "name": "location",
              "type": "string"
            },
            {
              "internalType": "string",
              "name": "operator",
              "type": "string"
            },
            {
              "internalType": "uint256",
              "name": "timestamp",
              "type": "uint256"
            },
            {
              "internalType": "string",
              "name": "extraData",
              "type": "string"
            }
          ],
          "internalType": "struct ProductAuth.TraceabilityRecord[]",
          "name": "",
          "type": "tuple[]"
        }
      ],
      "stateMutability": "view",
      "type": "function"
    },
    {
      "inputs": [],
      "name": "getVersion",
      "outputs": [
        {
          "internalType": "string",
          "name": "",
          "type": "string"
        }
      ],
      "stateMutability": "pure",
      "type": "function"
    },
    {
      "inputs": [
        {
          "internalType": "string",
          "name": "_productId",
          "type": "string"
        }
      ],
      "name": "isProductRegistered",
      "outputs": [
        {
          "internalType": "bool",
          "name": "",
          "type": "bool"
        }
      ],
      "stateMutability": "view",
      "type": "function"
    },
    {
      "inputs": [
        {
          "internalType": "string",
          "name": "",
          "type": "string"
        }
      ],
      "name": "products",
      "outputs": [
        {
          "internalType": "string",
          "name": "productId",
          "type": "string"
        },
        {
          "internalType": "string",
          "name": "internalCode",
          "type": "string"
        },
        {
          "internalType": "string",
          "name": "productName",
          "type": "string"
        },
        {
          "internalType": "string",
          "name": "productModel",
          "type": "string"
        },
        {
          "internalType": "string",
          "name": "category",
          "type": "string"
        },
        {
          "internalType": "uint256",
          "name": "createdAt",
          "type": "uint256"
        },
        {
          "internalType": "uint256",
          "name": "batchId",
          "type": "uint256"
        },
        {
          "internalType": "bool",
          "name": "isRegistered",
          "type": "bool"
        },
        {
          "internalType": "address",
          "name": "registrant",
          "type": "address"
        }
      ],
      "stateMutability": "view",
      "type": "function"
    },
    {
      "inputs": [
        {
          "internalType": "string",
          "name": "_productId",
          "type": "string"
        },
        {
          "internalType": "string",
          "name": "_internalCode",
          "type": "string"
        },
        {
          "internalType": "string",
          "name": "_productName",
          "type": "string"
        },
        {
          "internalType": "string",
          "name": "_productModel",
          "type": "string"
        },
        {
          "internalType": "string",
          "name": "_category",
          "type": "string"
        },
        {
          "internalType": "uint256",
          "name": "_batchId",
          "type": "uint256"
        }
      ],
      "name": "registerProduct",
      "outputs": [
        {
          "internalType": "bool",
          "name": "",
          "type": "bool"
        }
      ],
      "stateMutability": "nonpayable",
      "type": "function"
    },
    {
      "inputs": [
        {
          "internalType": "string",
          "name": "",
          "type": "string"
        },
        {
          "internalType": "uint256",
          "name": "",
          "type": "uint256"
        }
      ],
      "name": "traceabilityHistory",
      "outputs": [
        {
          "internalType": "string",
          "name": "productId",
          "type": "string"
        },
        {
          "internalType": "string",
          "name": "action",
          "type": "string"
        },
        {
          "internalType": "string",
          "name": "description",
          "type": "string"
        },
        {
          "internalType": "string",
          "name": "location",
          "type": "string"
        },
        {
          "internalType": "string",
          "name": "operator",
          "type": "string"
        },
        {
          "internalType": "uint256",
          "name": "timestamp",
          "type": "uint256"
        },
        {
          "internalType": "string",
          "name": "extraData",
          "type": "string"
        }
      ],
      "stateMutability": "view",
      "type": "function"
    },
    {
      "inputs": [
        {
          "internalType": "string",
          "name": "_productId",
          "type": "string"
        }
      ],
      "name": "verifyProduct",
      "outputs": [
        {
          "internalType": "bool",
          "name": "isValid",
          "type": "bool"
        },
        {
          "components": [
            {
              "internalType": "string",
              "name": "productId",
              "type": "string"
            },
            {
              "internalType": "string",
              "name": "internalCode",
              "type": "string"
            },
            {
              "internalType": "string",
              "name": "productName",
              "type": "string"
            },
            {
              "internalType": "string",
              "name": "productModel",
              "type": "string"
            },
            {
              "internalType": "string",
              "name": "category",
              "type": "string"
            },
            {
              "internalType": "uint256",
              "name": "createdAt",
              "type": "uint256"
            },
            {
              "internalType": "uint256",
              "name": "batchId",
              "type": "uint256"
            },
            {
              "internalType": "bool",
              "name": "isRegistered",
              "type": "bool"
            },
            {
              "internalType": "address",
              "name": "registrant",
              "type": "address"
            }
          ],
          "internalType": "struct ProductAuth.Product",
          "name": "productInfo",
          "type": "tuple"
        }
      ],
      "stateMutability": "nonpayable",
      "type": "function"
    }
  ],
  "bytecode": "0x608060405234801561001057600080fd5b50613390806100206000396000f3fe608060405234801561001057600080fd5b50600436106100ea5760003560e01c806392efc4531161008c5780639964e21e116100665780639964e21e146102455780639ac1671114610258578063dcdd0ad41461026b578063e5bde72f1461027e57600080fd5b806392efc453146101eb578063943ef5121461020c57806398dc6a4e1461023257600080fd5b80631e764d45116100c85780631e764d451461017557806351ca45d31461019857806357ba11b0146101b85780635d212ea5146101d857600080fd5b80630186a423146100ef5780630772d2d7146101205780630d8e6e2c1461014e575b600080fd5b6101026100fd3660046127d0565b61029e565b6040516101179998979695949392919061284a565b60405180910390f35b61014061012e3660046128e1565b60009081526002602052604090205490565b604051908152602001610117565b60408051808201825260058152640312e302e360dc1b6020820152905161011791906128fa565b610188610183366004612955565b6105a6565b6040519015158152602001610117565b6101ab6101a6366004612996565b6105d8565b60405161011791906129e6565b6101cb6101c6366004612955565b610b39565b6040516101179190612ba9565b6101886101e6366004612bbc565b610ef8565b6101fe6101f9366004612955565b61120a565b604051610117929190612cf9565b61021f61021a366004612d14565b6115bb565b6040516101179796959493929190612d58565b610140610240366004612955565b611959565b610188610253366004612e25565b611985565b610188610266366004612f21565b611ed1565b610188610279366004612ffe565b612245565b61014061028c3660046128e1565b60026020526000908152604090205481565b80516020818301810180516000825292820191909301209152805481906102c4906130ee565b80601f01602080910402602001604051908101604052809291908181526020018280546102f0906130ee565b801561033d5780601f106103125761010080835404028352916020019161033d565b820191906000526020600020905b81548152906001019060200180831161032057829003601f168201915b505050505090806001018054610352906130ee565b80601f016020809104026020016040519081016040528092919081815260200182805461037e906130ee565b80156103cb5780601f106103a0576101008083540402835291602001916103cb565b820191906000526020600020905b8154815290600101906020018083116103ae57829003601f168201915b5050505050908060020180546103e0906130ee565b80601f016020809104026020016040519081016040528092919081815260200182805461040c906130ee565b80156104595780601f1061042e57610100808354040283529160200191610459565b820191906000526020600020905b81548152906001019060200180831161043c57829003601f168201915b50505050509080600301805461046e906130ee565b80601f016020809104026020016040519081016040528092919081815260200182805461049a906130ee565b80156104e75780601f106104bc576101008083540402835291602001916104e7565b820191906000526020600020905b8154815290600101906020018083116104ca57829003601f168201915b5050505050908060040180546104fc906130ee565b80601f0160208091040260200160405190810160405280929190818152602001828054610528906130ee565b80156105755780601f1061054a57610100808354040283529160200191610575565b820191906000526020600020905b81548152906001019060200180831161055857829003601f168201915b50505050600583015460068401546007909401549293909290915060ff81169061010090046001600160a01b031689565b60008083836040516105b9929190613128565b9081526040519081900360200190206007015460ff1690505b92915050565b60606000600186866040516105ee929190613128565b908152604051908190036020019020549050808410610679576040805160008082526020820190925290610670565b61065d6040518060e00160405280606081526020016060815260200160608152602001606081526020016060815260200160008152602001606081525090565b81526020019060019003908161061d5790505b50915050610b31565b8281610685828761314e565b1115610698576106958583613161565b90505b6000816001600160401b038111156106b2576106b261272e565b60405190808252806020026020018201604052801561072357816020015b6107106040518060e00160405280606081526020016060815260200160608152602001606081526020016060815260200160008152602001606081525090565b8152602001906001900390816106d05790505b50905060005b82811015610b2b5760018989604051610743929190613128565b90815260405190819003602001902061075c828961314e565b8154811061076c5761076c613174565b90600052602060002090600702016040518060e0016040529081600082018054610795906130ee565b80601f01602080910402602001604051908101604052809291908181526020018280546107c1906130ee565b801561080e5780601f106107e35761010080835404028352916020019161080e565b820191906000526020600020905b8154815290600101906020018083116107f157829003601f168201915b50505050508152602001600182018054610827906130ee565b80601f0160208091040260200160405190810160405280929190818152602001828054610853906130ee565b80156108a05780601f10610875576101008083540402835291602001916108a0565b820191906000526020600020905b81548152906001019060200180831161088357829003601f168201915b505050505081526020016002820180546108b9906130ee565b80601f01602080910402602001604051908101604052809291908181526020018280546108e5906130ee565b80156109325780601f1061090757610100808354040283529160200191610932565b820191906000526020600020905b81548152906001019060200180831161091557829003601f168201915b5050505050815260200160038201805461094b906130ee565b80601f0160208091040260200160405190810160405280929190818152602001828054610977906130ee565b80156109c45780601f10610999576101008083540402835291602001916109c4565b820191906000526020600020905b8154815290600101906020018083116109a757829003601f168201915b505050505081526020016004820180546109dd906130ee565b80601f0160208091040260200160405190810160405280929190818152602001828054610a09906130ee565b8015610a565780601f10610a2b57610100808354040283529160200191610a56565b820191906000526020600020905b815481529060010190602001808311610a3957829003601f168201915b5050505050815260200160058201548152602001600682018054610a79906130ee565b80601f0160208091040260200160405190810160405280929190818152602001828054610aa5906130ee565b8015610af25780601f10610ac757610100808354040283529160200191610af2565b820191906000526020600020905b815481529060010190602001808311610ad557829003601f168201915b505050505081525050828281518110610b0d57610b0d613174565b60200260200101819052508080610b239061318a565b915050610729565b50925050505b949350505050565b610b416126d7565b60008383604051610b53929190613128565b9081526040519081900360200190206007015460ff16610bb35760405162461bcd60e51b8152602060048201526016602482015275141c9bd91d58dd081b9bdd081c9959da5cdd195c995960521b60448201526064015b60405180910390fd5b60008383604051610bc5929190613128565b908152602001604051809103902060405180610120016040529081600082018054610bef906130ee565b80601f0160208091040260200160405190810160405280929190818152602001828054610c1b906130ee565b8015610c685780601f10610c3d57610100808354040283529160200191610c68565b820191906000526020600020905b815481529060010190602001808311610c4b57829003601f168201915b50505050508152602001600182018054610c81906130ee565b80601f0160208091040260200160405190810160405280929190818152602001828054610cad906130ee565b8015610cfa5780601f10610ccf57610100808354040283529160200191610cfa565b820191906000526020600020905b815481529060010190602001808311610cdd57829003601f168201915b50505050508152602001600282018054610d13906130ee565b80601f0160208091040260200160405190810160405280929190818152602001828054610d3f906130ee565b8015610d8c5780601f10610d6157610100808354040283529160200191610d8c565b820191906000526020600020905b815481529060010190602001808311610d6f57829003601f168201915b50505050508152602001600382018054610da5906130ee565b80601f0160208091040260200160405190810160405280929190818152602001828054610dd1906130ee565b8015610e1e5780601f10610df357610100808354040283529160200191610e1e565b820191906000526020600020905b815481529060010190602001808311610e0157829003601f168201915b50505050508152602001600482018054610e37906130ee565b80601f0160208091040260200160405190810160405280929190818152602001828054610e63906130ee565b8015610eb05780601f10610e8557610100808354040283529160200191610eb0565b820191906000526020600020905b815481529060010190602001808311610e9357829003601f168201915b5050509183525050600582015460208201526006820154604082015260079091015460ff81161515606083015261010090046001600160a01b03166080909101529392505050565b6000808d8d604051610f0b929190613128565b9081526040519081900360200190206007015460ff16610f665760405162461bcd60e51b8152602060048201526016602482015275141c9bd91d58dd081b9bdd081c9959da5cdd195c995960521b6044820152606401610baa565b60018d8d604051610f78929190613128565b90815260200160405180910390206040518060e001604052808f8f8080601f016020809104026020016040519081016040528093929190818152602001838380828437600081840152601f19601f8201169050808301925050505050505081526020018d8d8080601f016020809104026020016040519081016040528093929190818152602001838380828437600092019190915250505090825250604080516020601f8e018190048102820181019092528c815291810191908d908d9081908401838280828437600092019190915250505090825250604080516020601f8c018190048102820181019092528a815291810191908b908b9081908401838280828437600092019190915250505090825250604080516020601f8a01819004810282018101909252888152918101919089908990819084018382808284376000920191909152505050908252504260208083019190915260408051601f88018390048302810183018252878152920191908790879081908401838280828437600092018290525093909452505083546001810185559381526020902082519293600702019182915061112a90826131f2565b506020820151600182019061113f90826131f2565b506040820151600282019061115490826131f2565b506060820151600382019061116990826131f2565b506080820151600482019061117e90826131f2565b5060a0820151600582015560c0820151600682019061119d90826131f2565b5050508c8c6040516111b0929190613128565b60405180910390207fe100f7bd9f90811cd65d0349460665642101fd2af19b09cde23bbe49d439c2ef8c8c8a8a426040516111ef9594939291906132da565b60405180910390a25060019c9b505050505050505050505050565b60006112146126d7565b60008484604051611226929190613128565b908152602001604051809103902060405180610120016040529081600082018054611250906130ee565b80601f016020809104026020016040519081016040528092919081815260200182805461127c906130ee565b80156112c95780601f1061129e576101008083540402835291602001916112c9565b820191906000526020600020905b8154815290600101906020018083116112ac57829003601f168201915b505050505081526020016001820180546112e2906130ee565b80601f016020809104026020016040519081016040528092919081815260200182805461130e906130ee565b801561135b5780601f106113305761010080835404028352916020019161135b565b820191906000526020600020905b81548152906001019060200180831161133e57829003601f168201915b50505050508152602001600282018054611374906130ee565b80601f01602080910402602001604051908101604052809291908181526020018280546113a0906130ee565b80156113ed5780601f106113c2576101008083540402835291602001916113ed565b820191906000526020600020905b8154815290600101906020018083116113d057829003601f168201915b50505050508152602001600382018054611406906130ee565b80601f0160208091040260200160405190810160405280929190818152602001828054611432906130ee565b801561147f5780601f106114545761010080835404028352916020019161147f565b820191906000526020600020905b81548152906001019060200180831161146257829003601f168201915b50505050508152602001600482018054611498906130ee565b80601f01602080910402602001604051908101604052809291908181526020018280546114c4906130ee565b80156115115780601f106114e657610100808354040283529160200191611511565b820191906000526020600020905b8154815290600101906020018083116114f457829003601f168201915b505050918352505060058201546020820152600682015460408083019190915260079092015460ff81161515606083015261010090046001600160a01b031660809091015260e0820151905190935090915033906115729086908690613128565b604080519182900382208515158352426020840152917f712b8f022d8783c071c29831975fbcc300f18e9e64636687d31adb6616d94464910160405180910390a35b9250929050565b815160208184018101805160018252928201918501919091209190528054829081106115e657600080fd5b90600052602060002090600702016000915091505080600001805461160a906130ee565b80601f0160208091040260200160405190810160405280929190818152602001828054611636906130ee565b80156116835780601f1061165857610100808354040283529160200191611683565b820191906000526020600020905b81548152906001019060200180831161166657829003601f168201915b505050505090806001018054611698906130ee565b80601f01602080910402602001604051908101604052809291908181526020018280546116c4906130ee565b80156117115780601f106116e657610100808354040283529160200191611711565b820191906000526020600020905b8154815290600101906020018083116116f457829003601f168201915b505050505090806002018054611726906130ee565b80601f0160208091040260200160405190810160405280929190818152602001828054611752906130ee565b801561179f5780601f106117745761010080835404028352916020019161179f565b820191906000526020600020905b81548152906001019060200180831161178257829003601f168201915b5050505050908060030180546117b4906130ee565b80601f01602080910402602001604051908101604052809291908181526020018280546117e0906130ee565b801561182d5780601f106118025761010080835404028352916020019161182d565b820191906000526020600020905b81548152906001019060200180831161181057829003601f168201915b505050505090806004018054611842906130ee565b80601f016020809104026020016040519081016040528092919081815260200182805461186e906130ee565b80156118bb5780601f10611890576101008083540402835291602001916118bb565b820191906000526020600020905b81548152906001019060200180831161189e57829003601f168201915b5050505050908060050154908060060180546118d6906130ee565b80601f0160208091040260200160405190810160405280929190818152602001828054611902906130ee565b801561194f5780601f106119245761010080835404028352916020019161194f565b820191906000526020600020905b81548152906001019060200180831161193257829003601f168201915b5050505050905087565b60006001838360405161196d929190613128565b90815260405190819003602001902054905092915050565b60008a8914801561199557508a87145b80156119a057508a85145b80156119ab57508a83145b6119ef5760405162461bcd60e51b8152602060048201526015602482015274082e4e4c2f240d8cadccee8d040dad2e6dac2e8c6d605b1b6044820152606401610baa565b8a611a2a5760405162461bcd60e51b815260206004820152600b60248201526a456d70747920617272617960a81b6044820152606401610baa565b60648b1115611a7b5760405162461bcd60e51b815260206004820152601e60248201527f42617463682073697a6520746f6f206c6172676520286d6178203130302900006044820152606401610baa565b60005b8b811015611e9b5760008d8d83818110611a9a57611a9a613174565b9050602002810190611aac9190613314565b604051611aba929190613128565b9081526040519081900360200190206007015460ff16611e89576040518061012001604052808e8e84818110611af257611af2613174565b9050602002810190611b049190613314565b8080601f0160208091040260200160405190810160405280939291908181526020018383808284376000920191909152505050908252506020018c8c84818110611b5057611b50613174565b9050602002810190611b629190613314565b8080601f0160208091040260200160405190810160405280939291908181526020018383808284376000920191909152505050908252506020018a8a84818110611bae57611bae613174565b9050602002810190611bc09190613314565b8080601f016020809104026020016040519081016040528093929190818152602001838380828437600092019190915250505090825250602001888884818110611c0c57611c0c613174565b9050602002810190611c1e9190613314565b8080601f016020809104026020016040519081016040528093929190818152602001838380828437600092019190915250505090825250602001868684818110611c6a57611c6a613174565b9050602002810190611c7c9190613314565b8080601f01602080910402602001604051908101604052809392919081815260200183838082843760009201829052509385525050426020840152506040820186905260016060830152336080909201919091528e8e84818110611ce257611ce2613174565b9050602002810190611cf49190613314565b604051611d02929190613128565b90815260405190819003602001902081518190611d1f90826131f2565b5060208201516001820190611d3490826131f2565b5060408201516002820190611d4990826131f2565b5060608201516003820190611d5e90826131f2565b5060808201516004820190611d7390826131f2565b5060a0820151600582015560c0820151600682015560e082015160079091018054610100938401516001600160a81b0319909116921515610100600160a81b031916929092176001600160a01b03909216909202179055338d8d83818110611ddd57611ddd613174565b9050602002810190611def9190613314565b604051611dfd929190613128565b60405180910390207f94f13dbe024332dcc9eea3655dffd40eaeb320b6c8479d9bc98d2c34f1e5e1c58d8d85818110611e3857611e38613174565b9050602002810190611e4a9190613314565b8d8d87818110611e5c57611e5c613174565b9050602002810190611e6e9190613314565b42604051611e809594939291906132da565b60405180910390a35b80611e938161318a565b915050611a7e565b50600082815260026020526040812080548d9290611eba90849061314e565b9091555060019d9c50505050505050505050505050565b60008a611f205760405162461bcd60e51b815260206004820152601a60248201527f50726f647563742049442063616e6e6f7420626520656d7074790000000000006044820152606401610baa565b60008c8c604051611f32929190613128565b9081526040519081900360200190206007015460ff1615611f955760405162461bcd60e51b815260206004820152601a60248201527f50726f6475637420616c726561647920726567697374657265640000000000006044820152606401610baa565b6040518061012001604052808d8d8080601f016020809104026020016040519081016040528093929190818152602001838380828437600092019190915250505090825250604080516020601f8e018190048102820181019092528c815291810191908d908d9081908401838280828437600092019190915250505090825250604080516020601f8c018190048102820181019092528a815291810191908b908b9081908401838280828437600092019190915250505090825250604080516020601f8a0181900481028201810190925288815291810191908990899081908401838280828437600092019190915250505090825250604080516020601f88018190048102820181019092528681529181019190879087908190840183828082843760009201829052509385525050426020840152506040808301869052600160608401523360809093019290925290516120f3908f908f90613128565b9081526040519081900360200190208151819061211090826131f2565b506020820151600182019061212590826131f2565b506040820151600282019061213a90826131f2565b506060820151600382019061214f90826131f2565b506080820151600482019061216490826131f2565b5060a0820151600582015560c0820151600682015560e082015160079091018054610100938401516001600160a81b0319909116921515610100600160a81b031916929092176001600160a01b0390921690920217905560008281526002602052604081208054916121d58361318a565b909155505060405133906121ec908e908e90613128565b60405180910390207f94f13dbe024332dcc9eea3655dffd40eaeb320b6c8479d9bc98d2c34f1e5e1c58c8c8c8c4260405161222b9594939291906132da565b60405180910390a35060019b9a5050505050505050505050565b600089881461228e5760405162461bcd60e51b8152602060048201526015602482015274082e4e4c2f240d8cadccee8d040dad2e6dac2e8c6d605b1b6044820152606401610baa565b896122c95760405162461bcd60e51b815260206004820152600b60248201526a456d70747920617272617960a81b6044820152606401610baa565b60005b8a8110156126c55760008c8c838181106122e8576122e8613174565b90506020028101906122fa9190613314565b604051612308929190613128565b9081526040519081900360200190206007015460ff16156126b35760018c8c8381811061233757612337613174565b90506020028101906123499190613314565b604051612357929190613128565b90815260200160405180910390206040518060e001604052808e8e8581811061238257612382613174565b90506020028101906123949190613314565b8080601f0160208091040260200160405190810160405280939291908181526020018383808284376000920191909152505050908252506020018c8c858181106123e0576123e0613174565b90506020028101906123f29190613314565b8080601f0160208091040260200160405190810160405280939291908181526020018383808284376000920191909152505050908252506020018a8a8581811061243e5761243e613174565b90506020028101906124509190613314565b8080601f01602080910402602001604051908101604052809392919081815260200183838082843760009201919091525050509082525060200188888581811061249c5761249c613174565b90506020028101906124ae9190613314565b8080601f0160208091040260200160405190810160405280939291908181526020018383808284376000920191909152505050908252506020018686858181106124fa576124fa613174565b905060200281019061250c9190613314565b8080601f016020809104026020016040519081016040528093929190818152602001838380828437600092018290525093855250504260208085019190915260408051808301825284815294019390935250835460018101855593815220815191926007020190819061257f90826131f2565b506020820151600182019061259490826131f2565b50604082015160028201906125a990826131f2565b50606082015160038201906125be90826131f2565b50608082015160048201906125d390826131f2565b5060a0820151600582015560c082015160068201906125f290826131f2565b5050508b8b8281811061260757612607613174565b90506020028101906126199190613314565b604051612627929190613128565b60405180910390207fe100f7bd9f90811cd65d0349460665642101fd2af19b09cde23bbe49d439c2ef8b8b8481811061266257612662613174565b90506020028101906126749190613314565b89898681811061268657612686613174565b90506020028101906126989190613314565b426040516126aa9594939291906132da565b60405180910390a25b806126bd8161318a565b9150506122cc565b5060019b9a5050505050505050505050565b6040518061012001604052806060815260200160608152602001606081526020016060815260200160608152602001600081526020016000815260200160001515815260200160006001600160a01b031681525090565b634e487b7160e01b600052604160045260246000fd5b600082601f83011261275557600080fd5b81356001600160401b038082111561276f5761276f61272e565b604051601f8301601f19908116603f011681019082821181831017156127975761279761272e565b816040528381528660208588010111156127b057600080fd5b836020870160208301376000602085830101528094505050505092915050565b6000602082840312156127e257600080fd5b81356001600160401b038111156127f857600080fd5b610b3184828501612744565b6000815180845260005b8181101561282a5760208185018101518683018201520161280e565b506000602082860101526020601f19601f83011685010191505092915050565b600061012080835261285e8184018d612804565b90508281036020840152612872818c612804565b90508281036040840152612886818b612804565b9050828103606084015261289a818a612804565b905082810360808401526128ae8189612804565b60a0840197909752505060c081019390935290151560e08301526001600160a01b03166101009091015295945050505050565b6000602082840312156128f357600080fd5b5035919050565b60208152600061290d6020830184612804565b9392505050565b60008083601f84011261292657600080fd5b5081356001600160401b0381111561293d57600080fd5b6020830191508360208285010111156115b457600080fd5b6000806020838503121561296857600080fd5b82356001600160401b0381111561297e57600080fd5b61298a85828601612914565b90969095509350505050565b600080600080606085870312156129ac57600080fd5b84356001600160401b038111156129c257600080fd5b6129ce87828801612914565b90989097506020870135966040013595509350505050565b60006020808301818452808551808352604092508286019150828160051b87010184880160005b83811015612ad557603f19898403018552815160e08151818652612a3382870182612804565b915050888201518582038a870152612a4b8282612804565b9150508782015185820389870152612a638282612804565b91505060608083015186830382880152612a7d8382612804565b9250505060808083015186830382880152612a988382612804565b9250505060a080830151818701525060c08083015192508582038187015250612ac18183612804565b968901969450505090860190600101612a0d565b509098975050505050505050565b60006101208251818552612af982860182612804565b91505060208301518482036020860152612b138282612804565b91505060408301518482036040860152612b2d8282612804565b91505060608301518482036060860152612b478282612804565b91505060808301518482036080860152612b618282612804565b91505060a083015160a085015260c083015160c085015260e0830151612b8b60e086018215159052565b50610100928301516001600160a01b03169390920192909252919050565b60208152600061290d6020830184612ae3565b60008060008060008060008060008060008060c08d8f031215612bde57600080fd5b6001600160401b038d351115612bf357600080fd5b612c008e8e358f01612914565b909c509a506001600160401b0360208e01351115612c1d57600080fd5b612c2d8e60208f01358f01612914565b909a5098506001600160401b0360408e01351115612c4a57600080fd5b612c5a8e60408f01358f01612914565b90985096506001600160401b0360608e01351115612c7757600080fd5b612c878e60608f01358f01612914565b90965094506001600160401b0360808e01351115612ca457600080fd5b612cb48e60808f01358f01612914565b90945092506001600160401b0360a08e01351115612cd157600080fd5b612ce18e60a08f01358f01612914565b81935080925050509295989b509295989b509295989b565b8215158152604060208201526000610b316040830184612ae3565b60008060408385031215612d2757600080fd5b82356001600160401b03811115612d3d57600080fd5b612d4985828601612744565b95602094909401359450505050565b60e081526000612d6b60e083018a612804565b8281036020840152612d7d818a612804565b90508281036040840152612d918189612804565b90508281036060840152612da58188612804565b90508281036080840152612db98187612804565b90508460a084015282810360c0840152612dd38185612804565b9a9950505050505050505050565b60008083601f840112612df357600080fd5b5081356001600160401b03811115612e0a57600080fd5b6020830191508360208260051b85010111156115b457600080fd5b600080600080600080600080600080600060c08c8e031215612e4657600080fd5b6001600160401b03808d351115612e5c57600080fd5b612e698e8e358f01612de1565b909c509a5060208d0135811015612e7f57600080fd5b612e8f8e60208f01358f01612de1565b909a50985060408d0135811015612ea557600080fd5b612eb58e60408f01358f01612de1565b909850965060608d0135811015612ecb57600080fd5b612edb8e60608f01358f01612de1565b909650945060808d0135811015612ef157600080fd5b50612f028d60808e01358e01612de1565b819450809350505060a08c013590509295989b509295989b9093969950565b600080600080600080600080600080600060c08c8e031215612f4257600080fd5b6001600160401b03808d351115612f5857600080fd5b612f658e8e358f01612914565b909c509a5060208d0135811015612f7b57600080fd5b612f8b8e60208f01358f01612914565b909a50985060408d0135811015612fa157600080fd5b612fb18e60408f01358f01612914565b909850965060608d0135811015612fc757600080fd5b612fd78e60608f01358f01612914565b909650945060808d0135811015612fed57600080fd5b50612f028d60808e01358e01612914565b60008060008060008060008060008060a08b8d03121561301d57600080fd5b8a356001600160401b038082111561303457600080fd5b6130408e838f01612de1565b909c509a5060208d013591508082111561305957600080fd5b6130658e838f01612de1565b909a50985060408d013591508082111561307e57600080fd5b61308a8e838f01612de1565b909850965060608d01359150808211156130a357600080fd5b6130af8e838f01612de1565b909650945060808d01359150808211156130c857600080fd5b506130d58d828e01612de1565b915080935050809150509295989b9194979a5092959850565b600181811c9082168061310257607f821691505b60208210810361312257634e487b7160e01b600052602260045260246000fd5b50919050565b8183823760009101908152919050565b634e487b7160e01b600052601160045260246000fd5b808201808211156105d2576105d2613138565b818103818111156105d2576105d2613138565b634e487b7160e01b600052603260045260246000fd5b60006001820161319c5761319c613138565b5060010190565b601f8211156131ed57600081815260208120601f850160051c810160208610156131ca5750805b601f850160051c820191505b818110156131e9578281556001016131d6565b5050505b505050565b81516001600160401b0381111561320b5761320b61272e565b61321f8161321984546130ee565b846131a3565b602080601f831160018114613254576000841561323c5750858301515b600019600386901b1c1916600185901b1785556131e9565b600085815260208120601f198616915b8281101561328357888601518255948401946001909101908401613264565b50858210156132a15787850151600019600388901b60f8161c191681555b5050505050600190811b01905550565b81835281816020850137506000828201602090810191909152601f909101601f19169091010190565b6060815260006132ee6060830187896132b1565b82810360208401526133018186886132b1565b9150508260408301529695505050505050565b6000808335601e1984360301811261332b57600080fd5b8301803591506001600160401b0382111561334557600080fd5b6020019150368190038213156115b457600080fdfea2646970667358221220ffb0c372499e87296b2b714f0a2cf7f081dcf2817857806dc3aa796d6adfbb4564736f6c63430008140033",
  "linkReferences": {},
  "deployedLinkReferences": {}
}